:020000040800F2
:10000000FCFF0020BD110000A1110000A1110000A3
:10001000A1110000A1110000A1110000A111000018
:10002000A1110000A1110000A1110000A111000008
:10003000A1110000A1110000A1110000A1110000F8
:10004000A1110000A1110000A1110000A1110000E8
:10005000A1110000A1110000A1110000A1110000D8
:10006000A1110000A1110000A1110000A1110000C8
:10007000A1110000A1110000A1110000A1110000B8
:10008000A1110000A1110000A1110000A1110000A8
:10009000A1110000A1110000A1110000A111000098
:1000A000A1110000A1110000A1110000A111000088
:1000B000A1110000A1110000A1110000A111000078
:1000C000A1110000A1110000A1110000A111000068
:1000D000A1110000A1110000A1110000A111000058
:1000E000A1110000A1110000A1110000A111000048
:1000F000A1110000A1110000A1110000A111000038
:10010000A1110000A1110000A1110000A111000027
:10011000A1110000A1110000A1110000A111000017
:10012000A1110000A1110000A1110000A111000007
:10013000A1110000A1110000A1110000A1110000F7
:10014000A1110000A1110000A1110000A1110000E7
:1001500001480068704700BF0400002083B0CDF85C
:1001600000E000F0FF031A09104603F00F021346E7
:1001700014E0194A02921FE0184A02921CE0184A41
:10018000029219E0174A029216E0174A029213E00F
:10019000164A029210E0164A02920DE00028E8D0BA
:1001A0000128E9D00228EAD00328EBD00428ECD0BB
:1001B0000528EDD00628EED0012212B29A40ADF803
:1001C000042002980A46BDF8041000F057FADDF842
:1001D00000E003B0704700BF00080140000C014080
:1001E000001001400014014000180140001C0140B3
:1001F0000020014081B0194900EA010108460022AF
:100200000EE0042022E0082020E010201EE0202044
:100210001CE040201AE0802018E040F2001015E0B9
:100220000F498842EDD00F498842ECD00E498842F0
:10023000EBD00E498842EAD00D498842E9D00D49F9
:100240008842E8D00C498842E7D010460B4909683B
:1002500041EA000209490A6001B0704700FCFFFF53
:1002600000080140000C0140001001400014014052
:1002700000180140001C01400020014018100240FD
:1002800082B0CDF800E0034619460191FFF760FF08
:1002900040F2E83100FB01F201990A601F49097838
:1002A000C1F30311C8B21E4909180878C0B21A1D5B
:1002B0001968C140116019490988C1F3022188B247
:1002C000174909180878C0B203F20802191D096815
:1002D000C140116011490988C1F3C22188B2104997
:1002E00009180878C0B203F20C02191D0968C14050
:1002F00011600A490988C1F3813188B20949091896
:100300000978C8B203F2100203F20C010968B1FBCC
:10031000F0F11160DDF800E002B070470410024017
:10032000C0140000D014000081B0CDF800E001221C
:1003300052B23E490A6000F268010B686FF000613A
:1003400003EA0102144603F00061C90E0B4602F0F5
:100350000041B1F1004F02D135490A6801E0354949
:100360000A6804F47021090C0E464FF6FF7104EA86
:1003700001010D4604F44011B1F5401F0DD16FF09D
:10038000706102EA01010E462A490A686FF0706145
:100390000A4028490A60324616E004F48011B1F59B
:1003A000801F09D14FF00301B140C94302EA0101A6
:1003B00041F070610A4607E0610D090105FA01F19B
:1003C000C9430A4042F070622BB1610D090105FA80
:1003D00001F10A43FFE704F00041B1F1004F02D1FF
:1003E00013490A6001E013490A6040F2000A81469D
:1003F0004FEA8A0109EB01010968B1F1FF3F10D012
:1004000009F134014FEA8A03C91809680A4609EB61
:100410000301096808461146FFF7A0FE0AF1010A28
:10042000E6E7DDF800E001B0704700BF000342429C
:100430001C0001400400014089B0CDF800E0834673
:1004400098B28C46BDF824100A9E04ACADF8041096
:10045000ADF808002046FFF713FFBDF80800BDF80F
:100460000410644CA34512D101256DB2624C256085
:10047000624D634C2560634D634C2560634D644C55
:100480002560644D644C2560079C039456E0634CE2
:10049000A34512D101256DB2614C2560614D584CC8
:1004A0002560614D584C2560604D594C2560604D6C
:1004B000594C2560069C039440E05E4CA34512D144
:1004C00001256DB25C4C25605C4D4D4C25605C4D4A
:1004D0004D4C25605B4D4E4C25605B4D4E4C256070
:1004E000069C03942AE0594CA34512D101256DB214
:1004F000574C2560574D424C2560574D424C256066
:10050000564D434C2560564D434C2560069C039444
:1005100014E0544CA34511D101256DB2524C256015
:10052000524D374C2560524D374C2560514D384C5B
:100530002560514D384C2560069C0394ADF804109D
:10054000ADF808003046FFF7EFFEBDF80800BDF833
:1005500004100BF1100500242C600BF110052C6821
:100560000C432C600BF10C0500242C6018B140F4F6
:10057000806080B2FFE70BF10C052C6804432C600F
:100580000BF10C060125346865F34D3434600BF132
:100590000C060125346865F3C30434600BF10C06C6
:1005A0000125346865F3820434600BF114050024DE
:1005B0002C60039D192465434FEA8C04B5FBF4F7C6
:1005C0006424B7FBF4F42601350964246C433C1B16
:1005D000240104F232056424B5FBF4F404F00F04A2
:1005E00046EA04040BF10805A4B22C60DDF800E033
:1005F00009B070470038014038034242FFFFFFFF57
:1006000008000020FFFFFFFF0C000020FFFFFFFF9E
:1006100010000020FFFFFFFF1400002000440040F6
:10062000C4034242FFFFFFFFFFFFFFFFFFFFFFFF8B
:10063000FFFFFFFF00480040C8034242FFFFFFFFEB
:10064000FFFFFFFFFFFFFFFFFFFFFFFF004C00402A
:10065000CC034242FFFFFFFFFFFFFFFFFFFFFFFF53
:10066000FFFFFFFF00500040D0034242FFFFFFFFAB
:10067000FFFFFFFFFFFFFFFFFFFFFFFF81B0CDF890
:1006800000E08CB21546774B00EA03031E4618467D
:10069000FFF7B0FDB4F1FF0F0CD1734B9D4203D1B6
:1006A0004FF033333360D9E0422D03D14FF0443360
:1006B0003360D3E04FF6FF739C4214D16A4B9D42E6
:1006C00007D14FF033333360341D4FF033332360A1
:1006D000C4E0422D07D14FF044333360341D4FF056
:1006E00044332360BAE00021002005F001030BB180
:1006F00000211DE005F0020333B105F4C0730BB116
:10070000082100E0042113E005F0040333B105F0F3
:1007100020030BB1042100E0002109E005F00803EB
:1007200033B105F020030BB10C2100E00821FFE7F5
:100730004E4B05EA03030BB1032009E005F40073F7
:100740000BB1022004E005F480630BB10120FFE748
:1007500005F00C030BB10143FFE704F0FF039BB26C
:10076000002B3BD0376800201FFA84F832462E4613
:1007700008282CD24FF0010303FA00F408EA04031E
:10078000A34222D185004FF00F03AB40DB4307EAC1
:10079000030401FA05F344EA03031D4606F48173DA
:1007A000B3F5817F05D102F214044FF001038340B9
:1007B000236006F08203822B05D102F210044FF071
:1007C0000103834023602F46FFE7401CD0E71760FA
:1007D0001FFA88F00F463146164602E00F462946BA
:1007E000A0B2B0F1FF0F39D9331DD3F80080002239
:1007F000082A30D202F208044FF0010303FA04F48D
:1008000000EA0403A34224D195004FF00F03AB404C
:10081000DB4308EA030807FA05F348EA030801F492
:100820008173B3F5817F07D106F2140502F2080443
:100830004FF00103A3402B6001F08203822B07D10C
:1008400006F2100502F208044FF00103A3402B60EA
:10085000FFE7521CCCE7331DC3F80080DDF800E051
:1008600001B0704700FCFFFF1400080000080800FA
:1008700081B0CDF800E0019D2C4610B408B493B2CD
:100880008AB201460348FFF7D7FD02B0DDF800E069
:1008900001B070470048004081B0CDF800E0019DF4
:1008A0002C4610B408B493B28AB201460348FFF74D
:1008B000C3FD02B0DDF800E001B070470038014030
:1008C00081B0CDF800E0019D2C4610B408B493B27D
:1008D0008AB201460348FFF7AFFD02B0DDF800E041
:1008E00001B070470044004081B0CDF800E0044AF8
:1008F00089B2FFF7C3FEDDF800E001B0704700BF2A
:100900001400080081B0CDF800E04FF0420289B237
:10091000FFF7B4FEDDF800E001B070470149086060
:10092000704700BF9401214201490860704700BF31
:100930009C81214201490860704700BFB0012242FA
:1009400001490860704700BF8C01224201490860DC
:10095000704700BFA481224201490860704700BF70
:10096000A881224201490860704700BF80012142EE
:1009700001490860704700BF988121420149086021
:10098000704700BFA081224201490860704700BF44
:10099000AC01224201490860704700BF98812242A1
:1009A00001490860704700BFB00122420149086058
:1009B000704700BFAC81224201490860704700BF08
:1009C000B081224201490860704700BFA80122425D
:1009D00001490860704700BFB881224201490860A0
:1009E000704700BF9C81214201490860704700BFE9
:1009F0009881214201490860704700BF94812242DA
:100A000001490860704700BFAC01224281B0CDF8B7
:100A100000E0094902B440F2000340F2000240F253
:100A20000001FFF74DFF01B0044A05490A600020AC
:100A3000DDF800E001B070471C130000FFFFFFFF6E
:100A40000000002081B0CDF800E0094902B440F276
:100A5000000340F2000240F20001FFF71DFF01B069
:100A6000044A05490A600020DDF800E001B0704743
:100A700088130000FFFFFFFF0000002081B0CDF8C9
:100A800000E0094902B440F2000340F2000240F2E3
:100A90000001FFF715FF01B0044A05490A60002074
:100AA000DDF800E001B070471C130000FFFFFFFFFE
:100AB0000000002081B0CDF800E0A9E0012905D1B7
:100AC00040F210016548FFF71DFF04E040F21001FD
:100AD0006248FFF709FFBBE0012905D140F204019C
:100AE0005F48FFF70FFF04E040F204015C48FFF7A6
:100AF000FBFEADE0012905D142F200015948FFF7A4
:100B000001FF04E042F200015648FFF7EDFE9FE0CE
:100B1000012905D140F200415148FFF7F3FE04E0FE
:100B200040F200414E48FFF7DFFE91E0012905D178
:100B300040F600014A48FFF7E5FE04E040F60001F8
:100B40004748FFF7D1FE83E0012905D141F20001BA
:100B50004348FFF7D7FE04E041F200014048FFF7A9
:100B6000C3FE75E0012905D140F201013B48FFF7C2
:100B7000C9FE04E040F201013848FFF7B5FE67E026
:100B8000012905D140F200413648FFF7BBFE04E0E1
:100B900040F200413348FFF7A7FE59E0012905D193
:100BA00040F200212F48FFF7ADFE04E040F20021A3
:100BB0002C48FFF799FE4BE0012905D140F20011C6
:100BC0002848FFF79FFE04E040F200112548FFF798
:100BD0008BFE3DE0012905D140F240012248FFF79C
:100BE00091FE04E040F240011F48FFF77DFE2FE038
:100BF000012905D140F280011B48FFF783FE04E084
:100C000040F280011848FFF76FFE21E0012020E04C
:100C100000283FF453AF01283FF45EAF02283FF4B1
:100C200069AF03283FF474AF04283FF47FAF052871
:100C30003FF48AAF06283FF495AF0728A0D00828D4
:100C4000ACD00928B8D00A28C4D00B28D0D0DDE712
:100C50000020DDF800E001B0704700BF000801404F
:100C60000010014000140140000C014081B0CDF89B
:100C700000E0A9E0012905D140F220016548FFF715
:100C800041FE04E040F220016248FFF72DFEBBE088
:100C9000012905D140F208015F48FFF733FE04E067
:100CA00040F208015C48FFF71FFEADE0012905D1C5
:100CB00044F200015948FFF725FE04E044F2000128
:100CC0005648FFF711FE9FE0012905D140F200418F
:100CD0005148FFF717FE04E040F200414E48FFF78D
:100CE00003FE91E0012905D140F600014A48FFF7D3
:100CF00009FE04E040F600014748FFF7F5FD83E0F8
:100D0000012905D141F200014348FFF7FBFD04E052
:100D100041F200014048FFF7E7FD75E0012905D1E8
:100D200041F200013D48FFF7EDFD04E041F2000112
:100D30003A48FFF7D9FD67E0012905D140F60001E7
:100D40003648FFF7DFFD04E040F600013348FFF7C7
:100D5000CBFD59E0012905D140F240012F48FFF7B2
:100D6000D1FD04E040F240012C48FFF7BDFD4BE00F
:100D7000012905D140F220012848FFF7C3FD04E016
:100D800040F220012548FFF7AFFD3DE0012905D1E4
:100D900040F240012248FFF7B5FD04E040F2400177
:100DA0001F48FFF7A1FD2FE0012905D140F2800186
:100DB0001B48FFF7A7FD04E040F280011848FFF749
:100DC00093FD21E0012020E000283FF453AF0128EB
:100DD0003FF45EAF02283FF469AF03283FF474AFDD
:100DE00004283FF47FAF05283FF48AAF06283FF47C
:100DF00095AF0728A0D00828ACD00928B8D00A2879
:100E0000C4D00B28D0D0DDE70020DDF800E001B031
:100E1000704700BF0008014000100140001401406D
:100E2000000C014081B0CDF800E0094902B440F265
:100E3000000340F2000240F20001FFF719FD01B08B
:100E4000044A05490A600020DDF800E001B070475F
:100E5000F4130000FFFFFFFF0000002001490860BD
:100E6000704700BF8801224201490860704700BFF7
:100E70009001214200F208010A6806490A60011D3A
:100E80000A6805490A6000F218010A6803490A6005
:100E9000704700BF180000201C0000202000002028
:100EA00001490860704700BFB481224201490860CF
:100EB000704700BFA801224244F67F77C0F21207B4
:100EC0007F1EFDD100BF00BF00BF00BF00BF704745
:100ED00081B0CDF800E040B90020164C2468A0474E
:100EE0000020154C2468A0471FE0012808D10120EC
:100EF000104C2468A04700200F4C2468A04714E041
:100F0000022808D100200B4C2468A04701200A4C7D
:100F10002468A04709E0032807D10120054C246874
:100F2000A0470120044C2468A047DDF800E001B090
:100F3000704700BF1C0000202000002081B0CDF8C9
:100F400000E05FFA81F95FFA82FA0FE05FFA8AF156
:100F50005FFA89F0FFF7AEFD0DE05FFA8AF15FFA04
:100F600089F0FFF783FE06E0012004E00028EDD0C1
:100F70000128F2D0F8E7DDF800E001B07047FFFF8C
:100F800081B0CDF800E0FFF775FFDDF800E001B0BB
:100F90007047FFFF81B0CDF800E00120034C2468CA
:100FA000A047DDF800E001B0704700BF1800002046
:100FB00081B0CDF800E011E00846FFF733FF16E0FE
:100FC0000846FFF723FD12E00846FFF73BFD0EE061
:100FD0000846FFF753FD0AE0012008E00028EBD0A7
:100FE0000128EDD02028EFD03028F1D0F4E7DDF84B
:100FF00000E001B07047FFFF81B0CDF800E00020B5
:10100000FFF766FF48F2FF67C0F2933700BF00BFEB
:101010007F1EFDD100BF00BF00BF0120FFF758FFBA
:1010200048F2FF67C0F293377F1EFDD100BF00BFBB
:1010300000BF00BF00BF0220FFF74AFF48F2FF6772
:10104000C0F2933700BF00BF7F1EFDD100BF00BFBD
:1010500000BF0320FFF73CFF48F2FF67C0F2933761
:101060007F1EFDD100BF00BF00BF00BF00BFDDF885
:1010700000E001B07047FFFF81B01CF8019B0BF846
:10108000019BBBEB0A0FF8D101B0704781B0154846
:10109000006840F0010113480160134913480160E2
:1010A00010480168124801400E4801600D4801686F
:1010B0006FF4802001400B4801600C4801686FF418
:1010C000FE00014009480160064801686FF0A05029
:1010D0000140044801604FF000010648016001B082
:1010E000704700BF001002400000FFF004100240F3
:1010F000FFFFF6FE2C10024081B0CDF800E0002288
:1011000006210020FFF71AFF002201210020FFF72F
:1011100015FF002202210020FFF710FF42F280514C
:101120002020FFF745FF44F67F77C0F2120700BF8B
:1011300000BF7F1EFDD100BF00BF00BFDDF800E093
:1011400001B0704781B0CDF800E00548FFF718FF07
:10115000FFF720FFFFF7B0FEDDF800E001B07047B9
:101160006014000081B04FF000094FF0000CBDEB9F
:101170000A0F04DCBDEB0B0F01DBD446EA464BF84B
:10118000049BBBEB0A0FFAD1BCEB0A0F05DDE2466C
:10119000D9F800B00BF1040BF1E701B07047FFFF85
:1011A00081B0FEE701B0704781B00249024801609A
:1011B00001B07047401901000400002000F00CF855
:1011C00000F088F9FFF7F0FFFFF796FFFFF7BAFF8F
:1011D000FFF712FFFCE7FEE781B0CDF800E0464ADA
:1011E000464B474C47494BF68030814206D946482A
:1011F000006840F002014448016011E045F6C0502B
:10120000814206D94048006840F001013E48016033
:1012100006E03D4801686FF0070001403A48016070
:10122000FFF734FF3948036039480460394802EA5F
:1012300000013948016002F0010040B1194636480A
:10124000006800F00200002800D1F8E700E019462D
:1012500002F4803040B10B462F48006800F40030A3
:10126000002800D1F8E700E00B4602F0805068B19A
:101270002948006840F080512748016026480068EE
:1012800000F00050002800D1F8E7FFE702F080608E
:1012900078B12148006840F080611F480160114624
:1012A0001A461D48006800F00060002800D1F8E7E9
:1012B00001E011461A4601F0807070B116480068CE
:1012C00040F080711448016011461348006800F036
:1012D000007000B9F9E70A46FFE70C48006800F023
:1012E0000C01900000F00C00814200D0F5E7DDF821
:1012F00000E001B0704700BF8100010502841D00BD
:101300004406010040190100002002400410024080
:101310002C100240FFFF0F000010024035000000BB
:1013200036000000FFFFFFFF00000000000000008B
:1013300000000000000000000000000000000000AD
:10134000000000000000000000000000000000009D
:101350001808000018000000000000000000000055
:10136000000000000000000000000000000000007D
:10137000000000000000000000000000000000006D
:101380000000000008000008090000000A0000003A
:10139000FFFFFFFF00000000000000000000000051
:1013A000000000000000000000000000000000003D
:1013B000000000000000000000000000180800000D
:1013C0001800000000000000000000000000000005
:1013D000000000000000000000000000000000000D
:1013E00000000000000000000000000000000000FD
:1013F000040000003800000039000000FFFFFFFF7C
:1014000000000000000000000000000000000000DC
:1014100000000000000000000000000000000000CC
:101420000000000000000000180800001800000084
:1014300000000000000000000000000000000000AC
:10144000000000000000000000000000000000009C
:101450000000000000000000000000003000140840
:10146000690E00005D0E0000A10E0000AD0E000030
:10147000010A000035090000650900005909000053
:101480004D0900007D0900007109000029090000D4
:10149000FFFFFFFFFFFFFFFFFFFFFFFFFFFFFFFF5C
:1014A000FFFFFFFFFFFFFFFFFFFFFFFFFFFFFFFF4C
:1014B000FFFFFFFFFFFFFFFFFFFFFFFFFFFFFFFF3C
:1014C00000000000010203040102030406070809EA
:1014D0000204060800B5DFF810B0DFF810A0FFF72F
:1014E00041FE00BD704700BF000000202400002026
:00000001FF
